{
  "_format": "hh-sol-artifact-1",
  "contractName": "SDMS",
  "sourceName": "contracts/SDMS.sol",
  "abi": [
    {
      "inputs": [],
      "stateMutability": "nonpayable",
      "type": "constructor"
    },
    {
      "inputs": [
        {
          "internalType": "uint256",
          "name": "_roll",
          "type": "uint256"
        },
        {
          "internalType": "string",
          "name": "_name",
          "type": "string"
        },
        {
          "internalType": "uint256",
          "name": "_age",
          "type": "uint256"
        },
        {
          "internalType": "string",
          "name": "_course",
          "type": "string"
        },
        {
          "internalType": "string",
          "name": "_email",
          "type": "string"
        }
      ],
      "name": "addStudent",
      "outputs": [],
      "stateMutability": "nonpayable",
      "type": "function"
    },
    {
      "inputs": [
        {
          "internalType": "uint256",
          "name": "_roll",
          "type": "uint256"
        }
      ],
      "name": "deleteStudent",
      "outputs": [],
      "stateMutability": "nonpayable",
      "type": "function"
    },
    {
      "inputs": [],
      "name": "owner",
      "outputs": [
        {
          "internalType": "address",
          "name": "",
          "type": "address"
        }
      ],
      "stateMutability": "view",
      "type": "function"
    },
    {
      "inputs": [
        {
          "internalType": "uint256",
          "name": "",
          "type": "uint256"
        }
      ],
      "name": "students",
      "outputs": [
        {
          "internalType": "string",
          "name": "name",
          "type": "string"
        },
        {
          "internalType": "uint256",
          "name": "age",
          "type": "uint256"
        },
        {
          "internalType": "string",
          "name": "course",
          "type": "string"
        },
        {
          "internalType": "string",
          "name": "email",
          "type": "string"
        }
      ],
      "stateMutability": "view",
      "type": "function"
    },
    {
      "inputs": [
        {
          "internalType": "uint256",
          "name": "_roll",
          "type": "uint256"
        },
        {
          "internalType": "string",
          "name": "_name",
          "type": "string"
        },
        {
          "internalType": "uint256",
          "name": "_age",
          "type": "uint256"
        },
        {
          "internalType": "string",
          "name": "_course",
          "type": "string"
        },
        {
          "internalType": "string",
          "name": "_email",
          "type": "string"
        }
      ],
      "name": "updateStudent",
      "outputs": [],
      "stateMutability": "nonpayable",
      "type": "function"
    },
    {
      "inputs": [
        {
          "internalType": "uint256",
          "name": "_roll",
          "type": "uint256"
        }
      ],
      "name": "viewStudent",
      "outputs": [
        {
          "components": [
            {
              "internalType": "string",
              "name": "name",
              "type": "string"
            },
            {
              "internalType": "uint256",
              "name": "age",
              "type": "uint256"
            },
            {
              "internalType": "string",
              "name": "course",
              "type": "string"
            },
            {
              "internalType": "string",
              "name": "email",
              "type": "string"
            }
          ],
          "internalType": "struct SDMS.Student",
          "name": "",
          "type": "tuple"
        }
      ],
      "stateMutability": "view",
      "type": "function"
    }
  ],
  "bytecode": "0x6080604052348015600f57600080fd5b5033600160006101000a81548173ffffffffffffffffffffffffffffffffffffffff021916908373ffffffffffffffffffffffffffffffffffffffff16021790555061121d806100606000396000f3fe608060405234801561001057600080fd5b50600436106100625760003560e01c806306ead22e14610067578063420977d81461009a5780638da5cb5b146100ca578063b645307d146100e8578063d635880c14610104578063ffcc486514610120575b600080fd5b610081600480360381019061007c91906109bf565b61013c565b6040516100919493929190610a8b565b60405180910390f35b6100b460048036038101906100af91906109bf565b610304565b6040516100c19190610baf565b60405180910390f35b6100d26104f0565b6040516100df9190610c12565b60405180910390f35b61010260048036038101906100fd91906109bf565b610516565b005b61011e60048036038101906101199190610d62565b61065a565b005b61013a60048036038101906101359190610d62565b610773565b005b600060205280600052604060002060009150905080600001805461015f90610e60565b80601f016020809104026020016040519081016040528092919081815260200182805461018b90610e60565b80156101d85780601f106101ad576101008083540402835291602001916101d8565b820191906000526020600020905b8154815290600101906020018083116101bb57829003601f168201915b5050505050908060010154908060020180546101f390610e60565b80601f016020809104026020016040519081016040528092919081815260200182805461021f90610e60565b801561026c5780601f106102415761010080835404028352916020019161026c565b820191906000526020600020905b81548152906001019060200180831161024f57829003601f168201915b50505050509080600301805461028190610e60565b80601f01602080910402602001604051908101604052809291908181526020018280546102ad90610e60565b80156102fa5780601f106102cf576101008083540402835291602001916102fa565b820191906000526020600020905b8154815290600101906020018083116102dd57829003601f168201915b5050505050905084565b61030c6108f0565b60008083815260200190815260200160002060405180608001604052908160008201805461033990610e60565b80601f016020809104026020016040519081016040528092919081815260200182805461036590610e60565b80156103b25780601f10610387576101008083540402835291602001916103b2565b820191906000526020600020905b81548152906001019060200180831161039557829003601f168201915b50505050508152602001600182015481526020016002820180546103d590610e60565b80601f016020809104026020016040519081016040528092919081815260200182805461040190610e60565b801561044e5780601f106104235761010080835404028352916020019161044e565b820191906000526020600020905b81548152906001019060200180831161043157829003601f168201915b5050505050815260200160038201805461046790610e60565b80601f016020809104026020016040519081016040528092919081815260200182805461049390610e60565b80156104e05780601f106104b5576101008083540402835291602001916104e0565b820191906000526020600020905b8154815290600101906020018083116104c357829003601f168201915b5050505050815250509050919050565b600160009054906101000a900473ffffffffffffffffffffffffffffffffffffffff1681565b600160009054906101000a900473ffffffffffffffffffffffffffffffffffffffff1673ffffffffffffffffffffffffffffffffffffffff163373ffffffffffffffffffffffffffffffffffffffff16146105a6576040517f08c379a000000000000000000000000000000000000000000000000000000000815260040161059d90610edd565b60405180910390fd5b600080600083815260200190815260200160002060000180546105c890610e60565b90500361060a576040517f08c379a000000000000000000000000000000000000000000000000000000000815260040161060190610f49565b60405180910390fd5b6000808281526020019081526020016000206000808201600061062d9190610918565b60018201600090556002820160006106459190610918565b6003820160006106559190610918565b505050565b600160009054906101000a900473ffffffffffffffffffffffffffffffffffffffff1673ffffffffffffffffffffffffffffffffffffffff163373ffffffffffffffffffffffffffffffffffffffff16146106ea576040517f08c379a00000000000000000000000000000000000000000000000000000000081526004016106e190610edd565b60405180910390fd5b60405180608001604052808581526020018481526020018381526020018281525060008087815260200190815260200160002060008201518160000190816107329190611115565b506020820151816001015560408201518160020190816107529190611115565b5060608201518160030190816107689190611115565b509050505050505050565b600160009054906101000a900473ffffffffffffffffffffffffffffffffffffffff1673ffffffffffffffffffffffffffffffffffffffff163373ffffffffffffffffffffffffffffffffffffffff1614610803576040517f08c379a00000000000000000000000000000000000000000000000000000000081526004016107fa90610edd565b60405180910390fd5b6000806000878152602001908152602001600020600001805461082590610e60565b905003610867576040517f08c379a000000000000000000000000000000000000000000000000000000000815260040161085e90610f49565b60405180910390fd5b60405180608001604052808581526020018481526020018381526020018281525060008087815260200190815260200160002060008201518160000190816108af9190611115565b506020820151816001015560408201518160020190816108cf9190611115565b5060608201518160030190816108e59190611115565b509050505050505050565b6040518060800160405280606081526020016000815260200160608152602001606081525090565b50805461092490610e60565b6000825580601f106109365750610955565b601f0160209004906000526020600020908101906109549190610958565b5b50565b5b80821115610971576000816000905550600101610959565b5090565b6000604051905090565b600080fd5b600080fd5b6000819050919050565b61099c81610989565b81146109a757600080fd5b50565b6000813590506109b981610993565b92915050565b6000602082840312156109d5576109d461097f565b5b60006109e3848285016109aa565b91505092915050565b600081519050919050565b600082825260208201905092915050565b60005b83811015610a26578082015181840152602081019050610a0b565b60008484015250505050565b6000601f19601f8301169050919050565b6000610a4e826109ec565b610a5881856109f7565b9350610a68818560208601610a08565b610a7181610a32565b840191505092915050565b610a8581610989565b82525050565b60006080820190508181036000830152610aa58187610a43565b9050610ab46020830186610a7c565b8181036040830152610ac68185610a43565b90508181036060830152610ada8184610a43565b905095945050505050565b600082825260208201905092915050565b6000610b01826109ec565b610b0b8185610ae5565b9350610b1b818560208601610a08565b610b2481610a32565b840191505092915050565b610b3881610989565b82525050565b60006080830160008301518482036000860152610b5b8282610af6565b9150506020830151610b706020860182610b2f565b5060408301518482036040860152610b888282610af6565b91505060608301518482036060860152610ba28282610af6565b9150508091505092915050565b60006020820190508181036000830152610bc98184610b3e565b905092915050565b600073ffffffffffffffffffffffffffffffffffffffff82169050919050565b6000610bfc82610bd1565b9050919050565b610c0c81610bf1565b82525050565b6000602082019050610c276000830184610c03565b92915050565b600080fd5b600080fd5b7f4e487b7100000000000000000000000000000000000000000000000000000000600052604160045260246000fd5b610c6f82610a32565b810181811067ffffffffffffffff82111715610c8e57610c8d610c37565b5b80604052505050565b6000610ca1610975565b9050610cad8282610c66565b919050565b600067ffffffffffffffff821115610ccd57610ccc610c37565b5b610cd682610a32565b9050602081019050919050565b82818337600083830152505050565b6000610d05610d0084610cb2565b610c97565b905082815260208101848484011115610d2157610d20610c32565b5b610d2c848285610ce3565b509392505050565b600082601f830112610d4957610d48610c2d565b5b8135610d59848260208601610cf2565b91505092915050565b600080600080600060a08688031215610d7e57610d7d61097f565b5b6000610d8c888289016109aa565b955050602086013567ffffffffffffffff811115610dad57610dac610984565b5b610db988828901610d34565b9450506040610dca888289016109aa565b935050606086013567ffffffffffffffff811115610deb57610dea610984565b5b610df788828901610d34565b925050608086013567ffffffffffffffff811115610e1857610e17610984565b5b610e2488828901610d34565b9150509295509295909350565b7f4e487b7100000000000000000000000000000000000000000000000000000000600052602260045260246000fd5b60006002820490506001821680610e7857607f821691505b602082108103610e8b57610e8a610e31565b5b50919050565b7f4e6f7420417574686f72697a6564000000000000000000000000000000000000600082015250565b6000610ec7600e836109f7565b9150610ed282610e91565b602082019050919050565b60006020820190508181036000830152610ef681610eba565b9050919050565b7f53747564656e7420646f65736e27742065786973740000000000000000000000600082015250565b6000610f336015836109f7565b9150610f3e82610efd565b602082019050919050565b60006020820190508181036000830152610f6281610f26565b9050919050565b60008190508160005260206000209050919050565b60006020601f8301049050919050565b600082821b905092915050565b600060088302610fcb7fffffffffffffffffffffffffffffffffffffffffffffffffffffffffffffffff82610f8e565b610fd58683610f8e565b95508019841693508086168417925050509392505050565b6000819050919050565b600061101261100d61100884610989565b610fed565b610989565b9050919050565b6000819050919050565b61102c83610ff7565b61104061103882611019565b848454610f9b565b825550505050565b600090565b611055611048565b611060818484611023565b505050565b5b818110156110845761107960008261104d565b600181019050611066565b5050565b601f8211156110c95761109a81610f69565b6110a384610f7e565b810160208510156110b2578190505b6110c66110be85610f7e565b830182611065565b50505b505050565b600082821c905092915050565b60006110ec600019846008026110ce565b1980831691505092915050565b600061110583836110db565b9150826002028217905092915050565b61111e826109ec565b67ffffffffffffffff81111561113757611136610c37565b5b6111418254610e60565b61114c828285611088565b600060209050601f83116001811461117f576000841561116d578287015190505b61117785826110f9565b8655506111df565b601f19841661118d86610f69565b60005b828110156111b557848901518255600182019150602085019450602081019050611190565b868310156111d257848901516111ce601f8916826110db565b8355505b6001600288020188555050505b50505050505056fea2646970667358221220efd19a3e14902e00fec7b5068badfed48ed424d2635ea1ed10567f8dc535bd1864736f6c634300081c0033",
  "linkReferences": {},
  "deployedLinkReferences": {}
}